:020000040000fa
:080000000002040000000000f2
:020000040000fa
:0400080000040000f0
:020000040000fa
:04000c002c030000c1
:020000040000fa
:040010006e0300007b
:020000040000fa
:040014004c03000099
:020000040000fa
:040018008e03000053
:020000040000fa
:04001c0000040000dc
:020000040000fa
:0400200000040000d8
:020000040000fa
:0400240000040000d4
:020000040000fa
:0400280000040000d0
:020000040000fa
:04002c0000040000cc
:020000040000fa
:0400300000040000c8
:020000040000fa
:0400340000040000c4
:020000040000fa
:0400380000040000c0
:020000040000fa
:04003c0000040000bc
:020000040000fa
:0400400000040000b8
:020000040000fa
:0400440000040000b4
:020000040000fa
:0400480000040000b0
:020000040000fa
:04004c0000040000ac
:020000040000fa
:0400500000040000a8
:020000040000fa
:04005400cc030000d9
:020000040000fa
:04005800ae030000f3
:020000040000fa
:04005c00000400009c
:020000040000fa
:040060000004000098
:020000040000fa
:040064000004000094
:020000040000fa
:040068000004000090
:020000040000fa
:04006c00000400008c
:020000040000fa
:040070000004000088
:020000040000fa
:040074000004000084
:020000040000fa
:040078000004000080
:020000040000fa
:04007c00000400007c
:020000040000fa
:040080000004000078
:020000040000fa
:040084000004000074
:020000040000fa
:040088000004000070
:020000040000fa
:04008c00000400006c
:020000040000fa
:040090000004000068
:020000040000fa
:040094000004000064
:020000040000fa
:040098000004000060
:020000040000fa
:04009c00000400005c
:020000040000fa
:0400a0000004000058
:020000040000fa
:0400a4000004000054
:020000040000fa
:0400a8000004000050
:020000040000fa
:0400ac00000400004c
:020000040000fa
:0400b0000004000048
:020000040000fa
:0400b4000004000044
:020000040000fa
:0400b8000004000040
:020000040000fa
:0400bc00000400003c
:020000040000fa
:0400c0000004000038
:020000040000fa
:0400c4000004000034
:020000040000fa
:0400c8000004000030
:020000040000fa
:0400cc00000400002c
:020000040000fa
:0400d0000004000028
:020000040000fa
:0400d4000004000024
:020000040000fa
:0400d8000004000020
:020000040000fa
:0400dc00000400001c
:020000040000fa
:0400e0000004000018
:020000040000fa
:0400e4000004000014
:020000040000fa
:0400e8000004000010
:020000040000fa
:0400ec00000400000c
:020000040000fa
:0400f0000004000008
:020000040000fa
:0400f4000004000004
:020000040000fa
:0400f8000004000000
:020000040000fa
:0400fc0000040000fc
:020000040000fa
:0401000000040000f7
:020000040000fa
:0401040000040000f3
:020000040000fa
:0401080000040000ef
:020000040000fa
:04010c0000040000eb
:020000040000fa
:0401100000040000e7
:020000040000fa
:0401140000040000e3
:020000040000fa
:0401180000040000df
:020000040000fa
:04011c0000040000db
:020000040000fa
:0401200000040000d7
:020000040000fa
:0401240000040000d3
:020000040000fa
:0401280000040000cf
:020000040000fa
:04012c00ea030000e2
:020000040000fa
:0401300000040000c7
:020000040000fa
:0401340000040000c3
:020000040000fa
:0401380000040000bf
:020000040000fa
:04013c0000040000bb
:020000040000fa
:0401400000040000b7
:020000040000fa
:0401440000040000b3
:020000040000fa
:0401480000040000af
:020000040000fa
:0402080000040000ee
:020000040000fa
:04020c002c030000bf
:020000040000fa
:040210006e03000079
:020000040000fa
:040214004c03000097
:020000040000fa
:040218008e03000051
:020000040000fa
:04021c0000040000da
:020000040000fa
:0402200000040000d6
:020000040000fa
:0402240000040000d2
:020000040000fa
:0402280000040000ce
:020000040000fa
:04022c0000040000ca
:020000040000fa
:0402300000040000c6
:020000040000fa
:0402340000040000c2
:020000040000fa
:0402380000040000be
:020000040000fa
:04023c0000040000ba
:020000040000fa
:0402400000040000b6
:020000040000fa
:0402440000040000b2
:020000040000fa
:0402480000040000ae
:020000040000fa
:04024c0000040000aa
:020000040000fa
:0402500000040000a6
:020000040000fa
:04025400cc030000d7
:020000040000fa
:04025800ae030000f1
:020000040000fa
:04025c00000400009a
:020000040000fa
:040260000004000096
:020000040000fa
:040264000004000092
:020000040000fa
:04026800000400008e
:020000040000fa
:04026c00000400008a
:020000040000fa
:040270000004000086
:020000040000fa
:040274000004000082
:020000040000fa
:04027800000400007e
:020000040000fa
:04027c00000400007a
:020000040000fa
:040280000004000076
:020000040000fa
:040284000004000072
:020000040000fa
:04028800000400006e
:020000040000fa
:04028c00000400006a
:020000040000fa
:040290000004000066
:020000040000fa
:040294000004000062
:020000040000fa
:04029800000400005e
:020000040000fa
:04029c00000400005a
:020000040000fa
:0402a0000004000056
:020000040000fa
:0402a4000004000052
:020000040000fa
:0402a800000400004e
:020000040000fa
:0402ac00000400004a
:020000040000fa
:0402b0000004000046
:020000040000fa
:0402b4000004000042
:020000040000fa
:0402b800000400003e
:020000040000fa
:0402bc00000400003a
:020000040000fa
:0402c0000004000036
:020000040000fa
:0402c4000004000032
:020000040000fa
:0402c800000400002e
:020000040000fa
:0402cc00000400002a
:020000040000fa
:0402d0000004000026
:020000040000fa
:0402d4000004000022
:020000040000fa
:0402d800000400001e
:020000040000fa
:0402dc00000400001a
:020000040000fa
:0402e0000004000016
:020000040000fa
:0402e4000004000012
:020000040000fa
:0402e800000400000e
:020000040000fa
:0402ec00000400000a
:020000040000fa
:0402f0000004000006
:020000040000fa
:0402f4000004000002
:020000040000fa
:0402f80000040000fe
:020000040000fa
:0402fc0000040000fa
:020000040000fa
:0403000000040000f5
:020000040000fa
:0403040000040000f1
:020000040000fa
:0403080000040000ed
:020000040000fa
:04030c0000040000e9
:020000040000fa
:0403100000040000e5
:020000040000fa
:0403140000040000e1
:020000040000fa
:0403180000040000dd
:020000040000fa
:04031c0000040000d9
:020000040000fa
:0403200000040000d5
:020000040000fa
:0403240000040000d1
:020000040000fa
:0403280000040000cd
:020000040000fa
:04032c00ea030000e0
:020000040000fa
:0403300000040000c5
:020000040000fa
:0403340000040000c1
:020000040000fa
:0403380000040000bd
:020000040000fa
:04033c0000040000b9
:020000040000fa
:0403400000040000b5
:020000040000fa
:0403440000040000b1
:020000040000fa
:0403480000040000ad
:020000040000fa
:100400002fba20000e7f22000e018800000000009d
:10041000000020000000e000020032000001200087
:100420002002880014000700460107000000e000d9
:1004300003003a004058230001002000020037006a
:100440000000200001002000810f70000100320038
:1004500014000700000020000000e000020032004d
:10046000000002000000000044390200000000000b
:100470000040da000000fe004440a900003c2100da
:100480000000e0000300320000002000a00188000e
:100490004440a800000006008a1f78008b1f7800e7
:1004a0000000060091018800800478000000eb0045
:1004b0001a003700e284440032a0b4009905ba0063
:1004c000e284440032a0b4009906ba00e2844400f9
:1004d00032a0b4000006eb00476fde00fd07b2005b
:1004e000636ce10003003a00ebff07000000eb0043
:1004f0000a003700606ce10004003a00005deb0088
:100500008b05e900fdff3e00040037006168e10053
:10051000010032000086eb000b00070019c7ba008b
:100520001905ba000e04e00003003a000a00e000da
:10053000e0ff3a0000000600fe07b2009e018800be
:100540008a047800f5ff3700395dba008b05e900b1
:100550000c003200295dba008b05e900080032006a
:100560000c00e00003003a00e284440032a0b40032
:10057000f5ff370019ddba008b05e900faff3a00f4
:100580008904e800e184440032a0b40000000600c1
:10059000000000000000000000000000000000005b
:1005a000000000000000000000000000000000004b
:1005b000000000000000000000000000000000003b
:1005c000000000000000000000000000000000002b
:1005d000000000000000000000000000000000001b
:1005e000000000000000000000000000000000000b
:1005f00000000000000000000000000000000000fb
:1006000000000000000000000000000000000000ea
:1006100000000000000000000000000000000000da
:1006200000000000000000000000000000000000ca
:1006300000000000000000000000000000000000ba
:1006400000000000000000000000000000000000aa
:1006500000000000000000003600f800809fbe008f
:10066000829fbe00849fbe00869fbe000000fa00ed
:100670008020a9000000eb00891b07000080fa0021
:100680004f03be004f02be004f01be004f00be0030
:100690003600f900004006003600f800809fbe00da
:1006a000829fbe00849fbe00869fbe000000fa00ad
:1006b000801b07008040a90010002000781b070065
:1006c0000080fa004f03be004f02be004f01be0083
:1006d0004f00be003600f900004006003600f8006a
:1006e000809fbe00829fbe00849fbe00869fbe008a
:1006f0000000fa008060a90020002000681b0700ad
:100700000080fa004f03be004f02be004f01be0042
:100710004f00be003600f900004006003600f80029
:10072000809fbe00829fbe00849fbe00869fbe0049
:100730000000fa008080a90030002000581b07004c
:100740000080fa004f03be004f02be004f01be0002
:100750004f00be003600f900004006003600f800e9
:10076000809fbe00829fbe00849fbe00869fbe0009
:100770000000fa0050408000000001000080fa00f4
:100780004f03be004f02be004f01be004f00be002f
:100790003600f900004006003600f800809fbe00d9
:1007a000829fbe00849fbe00869fbe000000fa00ac
:1007b00060408000000001000080fa004f03be008e
:1007c0004f02be004f01be004f00be003600f900d0
:1007d00000400600801f78000000fa001011800021
:1007e000620060000000e000010032002222a90047
:1007f0008c20a9000080fa004f007800004006001d
:100800000040da000000fe000a00fa00110020009b
:10081000b1bf9f00c0bf9f006a80570086050700d8
:100820004fb897000080fa00000006000a00fa00a6
:1008300051002000b1bf9f00c0bf9f006a805700d9
:100840007f0507005fb897000080fa0000000600ef
:10085000889fbe0080047800004d80000000e0000a
:1008600004003a000e0007000084eb000000e000e6
:1008700008003500084d80000900e0000500320046
:1008800009004400060007000000e00001003d00f0
:100890000084eb00080078004f04be000000060052
:1008a000800078000100e00003003a00209a200058
:1008b000004d8800000005000080eb0022ba2000f7
:1008c000828f500002003e00014d88000000eb00c6
:1008d000000006000a00fa0020079800310798007f
:1008e00042079800be009000110798000000eb003e
:1008f000000f78000c00370000000000941707007c
:100900000004a2000004e000fcff3a001e0090007a
:10091000104078009e0090008100e80011079800c8
:100920006b1707001e0fe8004e0090009e00780035
:10093000808f5000f0ff39004e0090000080fa00d8
:10094000000006000000050021842000b10007001f
:10095000800078000080eb000100e000040035001a
:1009600021842000a00020001c0007004f80de0032
:100970000000060080007800010178003104e000ea
:10098000fdff3a0000005100000006000c00370097
:10099000b0417800b1cf51000600320010002000b5
:1009a0009542780094cf52000b0031000080eb009c
:1009b000000006000304e000060032000201e90026
:1009c00001027800800278000200e000f0ff3a00a7
:1009d000000005000000eb0000000600889fbe003c
:1009e0008a1f78000004be00c900900069009000d2
:1009f000808f500006003900090078004801070088
:100a0000800078000080eb000100e0001700350056
:100a1000084578004900900008587800c004980004
:100a20001900780000b8a30004003a0000a8a30051
:100a300008003200ea4f540006003a00090078002e
:100a400039000700800078000080eb000100e00022
:100a500006003a0000c020001900600002003200c9
:100a600049009000e00498000a80fb004f057800e0
:100a70004f04be0000000600889fbe0000047800fe
:100a8000010078008204780088017800090178006c
:100a900011002000a7000700890f5000010032005c
:100aa0000004eb00080078004f04be0000000600c0
:100ab0000000fa00e88157004fb997002184200018
:100ac000c05320000c0707000080fa000000060059
:100ad000889fbe000004780001007800820478003e
:100ae00088017800090178001100200091000700ba
:100af000890f5000010032000004eb00080078006c
:100b00004f04be00000006000000fa00e881570014
:100b10004fb997002184200080562000f606070078
:100b20000080fa0000000600889fbe008a1f78003f
:100b3000000478000800e0000d003a000889200059
:100b4000700544008004eb00580078000000e000cd
:100b500004003200f4ff07000000e00001003d0047
:100b60008084eb008a0f5400f7ff3a00250037001d
:100b700000002200180060008004eb002100320019
:100b8000a80490000f003700090151003840900080
:100b90000000fb00890078004eff07000000e00025
:100ba00007003c0028009000400498006004980072
:100bb000500c98001890a0008084eb0011003700c2
:100bc0008084440048019000828f5400eeff390079
:100bd00028009000400498009800780002c020008f
:100be0000281600001003a003800900001e8a30093
:100bf000020032006004980001003700500c980099
:100c00008004eb00090078004f0578004f04be0017
:100c100000000600889fbe008a9fbe008004780006
:100c2000010478002c003700c80090006800900094
:100c3000808f50000400390008007800b8000700d9
:100c40000000e00037003500004020001800600080
:100c500009003200a100200009007800a60007006a
:100c6000800578000b00e00003003200618514006d
:100c70000a85450004003700090078003dff0700a1
:100c8000000578008005eb0048009000e800900027
:100c9000808050008a8f50000200310001057800ea
:100ca0008005eb000a017800890078007f000700ca
:100cb000480090000a004000400498000b00e0004b
:100cc000040032000800780097ff07000000e000f1
:100cd00014003a008a8444001904e000d2ff3a006c
:100ce0000080200018006000060032000800780034
:100cf0008dff0700800078000080eb000100e0001d
:100d000009003a0001c02000988060000000eb005c
:100d10000500320048009000600498000000eb00dd
:100d2000010037000080eb004f05be004f04be00fd
:100d300000000600889fbe008a9fbe008c9fbe00f8
:100d40008e1f780000067800010478000200780009
:100d5000830478000881b900020778000200e000ef
:100d6000420032000800e0004100320082057800b5
:100d7000c900900069009000808f50000400390085
:100d800009007800660007000000e0002900350037
:100d900000402000190060000a0032000b017800ba
:100da000a10020000c0078003600070080067800c3
:100db0000d00e00006003200610516000a854600bd
:100dc000040037000b0578008006eb0001003700b7
:100dd0000b05780049009000e900900080805000e9
:100de0008a8f500002003100010578008006eb0078
:100df0000a0178008c0078002c0007008a855500d5
:100e0000490090000a004000c00498000d00e00076
:100e1000040032000900780043ff07000000e000f2
:100e200004003a000b00e000020032000a0646000f
:100e3000cfff370000802000190060000200320060
:100e40000900780038ff070000c02000190060008a
:100e50000200320049009000e00498008b05570022
:100e6000110009008885d800010037000000eb0060
:100e70004f0778004f06be004f05be004f04be006e
:100e80000000060003003700b0cf1000050032005c
:100e90000201e900800178000200e000faff3a0058
:100ea00000000500030078000000060080017800c3
:100eb00002003700b15978000201e9000200e000a9
:100ec000fcff3a0000000600020037000304e000c7
:100ed000060032000001780002007800b04178007e
:100ee00081cf5100f9ff3a00010037000001eb000b
:100ef00002007800000006000001eb00000278000c
:100f0000b041780081cf510001003a00040178001f
:100f10000304e000f9ff3a00020078000000060038
:100f2000889fbe008a1f780000047800c8009000e7
:100f3000680190000000eb00828f50003c003900f7
:100f4000180078002200290002016000e20f510021
:100f500007003200012020000000e0000100350001
:100f600001202400008c70000080eb00300037006e
:100f70000200260002006000820f500009003a00c3
:100f800038009000808f500006003900080078007b
:100f9000e5fe0700800078000080eb000100e00023
:100fa00023003a001805780000c02000000065000a
:100fb00018003a00a80490006002200008004000d9
:100fc000808f540013003a000020200066030700c1
:100fd000200498000000e00005003a002904980071
:100fe000490498008904e800390498000800370093
:100ff0000a60a0000a0c780040049800012020003c
:101000008080400031049800400c9800500c9800fb
:1010100083020700280090005004980038009000d8
:101020006004980000002600180c70000000eb001f
:101030004f0578004f04be0000000600fc87470003
:10104000889fbe008a9fbe008c9fbe008e1f7800c6
:101050000006780080c5b30080cf50000a0032003f
:101060007740400080cf50000a00320069404000c5
:1010700080cf50000b003200b091200080bf9f0055
:10108000ae0020000a003700a290200082bf9f001f
:1010900006003700b391200083bf9f008e00200020
:1010a00003003700b491200084bf9f000e01200090
:1010b0003c02be002c03be000605be000404be00b8
:1010c00040c6b30080cf50000300320065404000ae
:1010d00080cf50000b003a00e00f5200e08f5a0022
:1010e000e00f5b00e08f5b0006003d006000b80091
:1010f0006011b800040450008584580006055900aa
:1011000087855900e80f5700040032004000200096
:10111000f00f570038003a0001003700300020007f
:10112000e00f5400e08f5c00e00f5d00e08f5d0099
:1011300004003a008c1090008d0120000100e000b6
:10114000060032008e00e900888060008fba9700a8
:10115000e5c07800f1ef9f007d012000800078005d
:101160008100e900050033008b05d1000a85d3001a
:101170008984d3000884d300f9ff3700089ebe009d
:101180000a96be00120037008d06e9008e00e900c5
:10119000848060000fb99700e2c1780082fd2f00c3
:1011a0000f01410003f17e00800078008100e9001a
:1011b000050033008783d1000683d3008582d300e6
:1011c0000482d300f9ff3700049ebe000696be00dd
:1011d0003c02be002c03be00e00f5200e08f5a001c
:1011e000e00f5b00e08f5b008b0034000d00e0003f
:1011f000e5ff3c00880037000c68900081c6b30012
:10120000814f50000b00320006003c000004e0005b
:1012100008003200e6c05000814f50004e003a00f6
:1012200004003700c1c6b300814f50004a003a00a5
:10123000210037000800e00004003a000c10900084
:101240008d0120000000e0000600320011000900be
:101250000e84d8000fb99700e2c07800f1ef9f002c
:101260007d012000110009000e84d8000a0037001b
:10127000110009000e04d8008d06e9000e81b900a6
:10128000020454008fb8970061417c0081fd2f005b
:101290008f80400082f07e00000478000800e000ab
:1012a000020032000d00e000f1ff3c00cfc4de0080
:1012b000614db90025003700e00f5400e08f5c005d
:1012c00004003a000c1090008d0120000000e000a6
:1012d000070032006171b9000800be003103070049
:1012e0008fb99700e3417800f3ef9f007d01200064
:1012f0006171b9000800be001a0307000b00370037
:101300006171b9000800be00070307008d06e900ff
:1013100000f1b900020454000fba9700e4427c00c7
:1013200084fd2f000f02420005f27e000004be0083
:10133000e00f5000e08f5800020032000d00e00086
:10134000efff3c004fcdde008a057800089ebe000e
:101350000a96be0030003700e00f5400e08f5c00ba
:10136000e00f5d00e08f5d0004003a000c1090007b
:101370008d0120000000e000090032006172b90018
:10138000612bb9000800be000a01be00ae030700d1
:101390000fba970064427800f4ef9f007d012000af
:1013a0006172b900612bb9000800be000a01be00dd
:1013b0009e0307000d0037006172b900612bb90070
:1013c0000800be000a01be00a30307008d06e90065
:1013d00000f2b900040454008fba970065427c0003
:1013e00085fd2f008f82420084f27e00009ebe00a9
:1013f0000296be003c04be002c05be00e00f540067
:10140000e08f5c00e00f5d00e08f5d0002003400c3
:101410000d00e000e8ff3c00e80f570010003a0024
:101420003c1090000038a3000d003200f78f5600ea
:1014300006003e0085fd2f008f824200e5c07e0041
:1014400000c3b30080cf5000050032008d06e900d4
:1014500002c3b30081fd2f008f80400082f07e0028
:1014600078811600420e98007c00900083fd2f00ca
:101470008f8141008d8041008cfe07004c08900058
:101480008c109000810f500006003d00008050003d
:10149000300e98003c1090000040a10030169800db
:1014a0000f0037000100e0000d003d00bc1090006f
:1014b000f4806000f08f500009003a002c11900079
:1014c000ac089000810051003c09900082805000df
:1014d000008050004240a90001003400300e980006
:1014e0004f0778004f06be004f05be004f04be00f8
:1014f000cf01b100000006000400fa00889fbe0082
:101500008a9fbe008c1f78000004780001067800d6
:10151000a814900028089000808454003808900097
:10152000808454004808900080845400580890003b
:1015300080845400680890008084540078089000eb
:10154000808454000002220090bf9f00000323000b
:10155000a0bf9f00381090000028a30015003a009b
:101560000900e00013003400090578008a057800be
:10157000e20f5500010036002b002000c80190004a
:101580000b017800ee805700680090000300010016
:10159000600498000000e000aa00320018109000db
:1015a0000b004000101498000b0555004240a900a4
:1015b000eeff3c00280990000200e0000c0034001f
:1015c000c80190008c0078006800900003000100c2
:1015d000600498008080eb000000e0009a00320078
:1015e0009810900028089000008040001014980087
:1015f000380d90000a00e000110034008a057800e0
:10160000e20f5500010036002b002000c8019000b9
:101610000b017800ec805700680090000300010087
:10162000600498000000e00086003200181090006e
:101630000b004000101498000b055500edff37001b
:1016400008699000c808900050c6b300804f510050
:1016500008003a000100e000150034005802900034
:1016600008099000980990006800900004000100ab
:10167000070037000100e0000d003400c8019000b1
:1016800001017800f800900068009000030001005c
:10169000600498008080eb000000e0006a003200e7
:1016a00098109000480890000080400010149800a6
:1016b000580d90000a00e000110034008a057800ff
:1016c000e20f5500010036002b002000c8019000f9
:1016d0000b017800ec8057006800900003000100c7
:1016e000600498000000e0005600320018109000de
:1016f0000b004000101498000b055500edff37005b
:10170000086990006808900051c6b300814f5100ed
:101710000d003a000000e0001c0034007801900049
:10172000c8089000010141006111b800828fd20009
:101730008381d200580290008000780068009000f9
:1017400004000100090037000000e0000f00340031
:1017500078019000c808900081004100c801900005
:101760000001780068009000030001006004980008
:101770008080eb000000e000330032009810900001
:10178000680890000080400010149800780d9000c8
:101790000a00e000110034008a057800e20f5500cd
:1017a000010036002b002000c80190000b017800da
:1017b000ec8057006800900003000100600498006e
:1017c0000000e0001f003200181090000b004000e5
:1017d000101498000b055500edff370038109000ed
:1017e0008000eb000028a300170032000900e00091
:1017f0001500340009057800e28f5400010036001e
:101800002a002000c80190000a017800ee805700ed
:101810006800900003000100600498000000e000f0
:1018200008003200181090000a00400010149800c0
:101830008a8454004240a900eeff3c008000eb0087
:10184000010037008080eb00010078004f0678002f
:101850004f05be004f04be000080fa0000000600e5
:101860000108780000000600e6874700889fbe0058
:101870008a9fbe008c9fbe008e1f780082bf9f0093
:1018800004047800029ab900f4b79f000400e00055
:10189000590032000fb997000200e00057003200f3
:1018a0000006be0004077800c800900068009000a1
:1018b000808f5000040039000800780098fd070070
:1018c0000000e0003b0035000040200018006000f0
:1018d0000a0032008e017800a20020000c00be0039
:1018e000760107000005be00008075000700320089
:1018f0008c0455008904e800050037008e04780048
:101900000a0020000b002000010037008e04780040
:10191000480190006800900002005000890f5000bc
:1019200003003100800478000a0020000b00200032
:101930006111b800828fd2008381d2000902780041
:101940000c00be0040010700090757004800900046
:1019500009004000400498000a8575000400320028
:101960000800780070fc07000000e00011003a0059
:101970000e00e0000f0032006148b800808fd200f6
:101980008180d2000000780000f0a1008c01d0001e
:101990000001d000028641004220a80081864e004e
:1019a0004200a9004220ae004200a8000c86d300ed
:1019b000bdff3700008020001800600002003200e8
:1019c0000800780058fc070000c0200018006000e4
:1019d00002003200c8019000630498007fb09700b5
:1019e0000e0750000fb99700110009000287d800b8
:1019f00080017800010037008001eb0003007800cf
:101a00004f0778004f06be004f05be004f04be00d2
:101a10006f00b1000000060020db200061003700ed
:101a2000881f7800c89920001804e00003003a00dd
:101a3000f9ff070020c0b300004c78004f04780085
:101a400000000600889fbe000004780008007800af
:101a500035fc0700800478000004200018006000b6
:101a600002003200280090005a0007000000eb003e
:101a700020049800384090000004e0000500350084
:101a80000000fb0060fb07000000e00001003200e6
:101a90008084eb00181090000000e0000800320085
:101aa00062fb07000000e000010032008084eb00d0
:101ab00018109000470007000000eb001014980079
:101ac0000008200018006000150032000001eb0043
:101ad0006000b800238920000202d00063027a006f
:101ae000880f520005003a00000040008180480045
:101af000008041000008eb00060037006100400054
:101b0000e08048000201e800e80f5000e08f580034
:101b1000f0ff3a00080078002e0007000e003700a2
:101b2000000c780000c0eb003044980060022000f8
:101b300008004000200498004004980050049800d9
:101b4000400c980060049800500c980070049800b5
:101b500076004400000c9800090078004f04be0095
:101b600000000600881f78000004eb006140b80008
:101b7000e2ff2f00f3ff2f000d010700028a200073
:101b8000620078000000e00001003200adff0700b5
:101b90000804e800e80f5400f4ff3a004f0478000e
:101ba00000000600010020000100e00008003200f3
:101bb000010080000100e000050032008100e90022
:101bc000010088008100d0000200800000b1780090
:101bd000000006000000e0002f003200c001780085
:101be000e38f51002c0036000308a3002a003a00be
:101bf000d14c80000100e00002003200810f500053
:101c00000400310011009800d04c88001600370005
:101c100082007800110190000200e0000200320012
:101c2000800f5100faff39001102780084824000d1
:101c3000850f500018003900808f520003003a00d1
:101c40008308420001007800070037000200e0002e
:101c50000300320083014000830f51000e00390061
:101c60001200980090009800900090000100e000a1
:101c70000900320010014000828f500006003a0037
:101c8000829920000009eb00100178001108410042
:101c9000910090001100980000000600889fbe008f
:101ca00000047800c14c80000100e0000200320016
:101cb000010078000d003700d14c8000a099200071
:101cc00004003700910f5400250036000180e80021
:101cd000910090000100e000faff3a001000370088
:101ce000920f54001e0036000280e80010017800b8
:101cf0000200e000faff3a0011017800d14c8000a8
:101d0000a099200004003700910f54001400360001
:101d10000180e80091009000828f5000faff3a00a5
:101d2000f94c8000888f540001003100880478004d
:101d300009007800360007000000e00004003a00c7
:101d4000888f5400050032008904d100f5ff370068
:101d5000091878009fff0700d2ff37000000eb0052
:101d60004f04be0000000600881f78006304400096
:101d70000800a1008000eb00800f54002100360015
:101d8000e30f540001003e004800200008007800e6
:101d9000c2ff07008000eb000000e00019003200e5
:101da000900078009101780064815100880f510003
:101db000030031001101900002087800070037008d
:101dc00008814000020878009101900013019800fa
:101dd00010017800110914008808780010017800bb
:101de0000000eb000200e0000400320092019000cd
:101df0000300e000010032000280e800c04c8800cf
:101e00008180e800010078004f047800000006009f
:101e1000800078000000eb000100e00005003400c5
:101e2000010078008afa0700e10f400001003a0043
:101e30000000eb000000060000c0da000000060011
:101e400000c0da00000006003400f8000203be0003
:101e5000820270008502720002f0a60000f0a60067
:101e60008100e800a10188001500b20008003200de
:101e7000105978000402e9000d00320061004000b2
:101e8000fbff39003420ec0000002800f8ff370089
:101e9000101978000482e900050032006200400059
:101ea000fbff39003420ec0000002800f8ff370069
:101eb0003400f9000601be00000006000300e00047
:101ec00007003200a5018000a101880010427800bf
:101ed000a50188000402fb00820f520011003200ad
:101ee0008301e900a5018000a1018800104278006b
:101ef000a50188000404e000080032000002780018
:101f00001000b00000026a004260af0000f0a000c4
:101f10000482d2000180b000e8ff370000002000fa
:101f20000100200000000600839f68000100e0001f
:101f300002003d0060001000e08018000300e00097
:101f400002003d0060011100e0811900050007005a
:101f50004f00e00002003b0060001000e08018002d
:101f6000000006006022b800060220000000d00039
:101f70008180d2000482d2008582d2000000a000bd
:101f80000202520083825a00030031000202420022
:101f900083824a000000a1000603e900f3ff3a0033
:101fa00000000600efff07000400be00000006006e
:101fb000020ab900001bb9000200b800810042000b
:101fc0008100430000000600889fbe008a9fbe007b
:101fd00030044200b0844a0030054b0090854b002d
:101fe0006000b1000898be000a90be000440e10005
:101ff00005c8e10006d0e10007d8e1000200310089
:10200000680040001008e8004f05be004f04be0005
:1020100000000600889fbe008a9fbe003004be00fc
:102020002005be000418540005985c0006185d00e9
:1020300007985d00110020000440e10005c8e100a0
:1020400006d0e10007d8e100010039008000eb0074
:10205000108810004f05be004f04be0000000600af
:102060001200fa00889fbe008a9fbe008c9fbe00af
:10207000e0b79f00f1b79f0082bf9f0093bf9f0012
:102080000605be000404be000000eb00d0b79f00b0
:10209000c0b79f00b0b79f00a0b79f0090b79f0048
:1020a000000678005fb19700cfb097008201410031
:1020b0003fb097000200e00004003d003700070039
:1020c0007e805700c0ff0700030037003300070081
:1020d0007e805700cfff0700dfb697000d00e000bd
:1020e0000c0035006fb29700ffb297000fbb97004e
:1020f0009fbb970010002000010020006011b80075
:1021000000027200818272000203730083837300f5
:102110001b0007000c06e80001042000810f560098
:10212000e0ff3a000d00e00004003d000802be00a0
:102130000a03be007e805700a3ff07005fa8970038
:102140000000e00005003a001fb29700afb2970010
:102150003fb39700cfb39700090007006fb0970017
:10216000ffb097000fb997009fb997004f06be00c8
:102170004f05be004f04be000080fa0000000600bc
:102180000100070000000600a4b79f00b5b79f003c
:10219000c6b79f00d7b79f00000006004f09de00ba
:1021a00082817100b3b79f004f01de008180400043
:1021b00082807000a1b79f008fb097004f09de00aa
:1021c000000040000200700090b79f007fa89700b9
:1021d0004f01de00818040008280700081b79f0047
:1021e0000d0007004f3ade000000400004007000c0
:1021f000f0af9f00080007000402420085824a00f9
:1022000006034b0087834b00dfff07000802be0078
:102210000a03be00000006002fb29700bfb297006d
:102220004fb39700dfb3970000000600881f7800c7
:1022300018002000881f780089ff07008f87e900b9
:102240004f04780000000600801feb0084ff0700a9
:102250008f87e90000000600889fbe008a9fbe00ad
:10226000e00f5000e08f5800e00f5900e08f590058
:102270000c003d006044b8006055b80000005400f8
:1022800081805c0002015d0083815d0018002000f8
:102290001500070008003d00180007000004eb00cf
:1022a000050037000004eb000f00070002003d00ae
:1022b0001200070018002000dcff07000800e00003
:1022c000060032006022b8006033b80000005200ff
:1022d00081805a0002015b0083815b004f05be00d4
:1022e0004f04be0000000600e00f5200e08f5a00cd
:1022f000e00f5b00e08f5b00000006006044b80068
:102300006055b8000402540085825c0006035d003d
:1023100087835d0000000600889fbe008a9fbe0084
:102320008c1f7800e00f5000e08f5800e00f59003c
:10233000e08f59000d003d006044b8006055b800c2
:102340000000540081805c0002015d0083815d001b
:102350001c0020000820e10009a8e1000ab0e1000b
:102360000bb8e1000d003d00080037000006eb004f
:10237000e00f5200e08f5a00e00f5b00e08f5b003f
:1023800006003d006044b8006055b80004025400e7
:1023900085825c0006035d0087835d00aaff07005d
:1023a0000c00e000060032006022b8006033b80084
:1023b0000000520081805a0002015b0083815b00b3
:1023c0004f0678004f05be004f04be000000060017
:1023d000889fbe00000478000203be0081047800dc
:1023e0000802780089017800120020000600be0073
:1023f0001dfd0700890f5000010032000004eb00b2
:10240000080078004f04be00000006006800fa00d3
:10241000889fbe008a9fbe00800478000104780077
:1024200082057800030578008400780000f92f0009
:102430000f0040000afd0700d98f9f00fb8f9f000f
:102440000000eb00a09f9f00e88f9f009a84fb0094
:102450000904fb008904ea00cf4cde005002200092
:10246000800f54000d003200e18f54000b003a0041
:10247000090178008a0078007f889700df8997003b
:1024800003000100f08f9f000000e0009500320083
:102490002f9897000000e800a09f9f0009054500c5
:1024a00050022000800f5400040032000800e000b9
:1024b000e6ff3a002f9897008b0037000000eb00f2
:1024c000809f9f00f0979f00e0979f00d0979f000c
:1024d000c0979f00b0979f0007003700019620002b
:1024e000010050000000400041952000610078008c
:1024f000cf98970001007000c09f9f000a047800e9
:1025000008057800ba4478008900fb000096200096
:102510006dfa07000000e000f0ff3a00a1c2b3002e
:1025200081cf54000e003a008f8897000180e900a7
:10253000808f9f0010007800b09f9f000000e00097
:1025400005003d000000ea00b09f9f004f989700f3
:102550000020a000c09f9f000804e8001000370082
:10256000b09f9f00880078000000eb000500370056
:10257000f3ff2700830f5000020032006a02b90007
:102580000400410001047800880078003101fb005c
:102590000203b100e90f5100f5ff3600b09f9f0024
:1025a000e0c2b300984f1000020032000080eb0040
:1025b00019003700a0c2b300d84f100007003a003e
:1025c0008f8897000180e900808f9f0010007800bd
:1025d000909f9f000804e800100037000000eb0007
:1025e000909f9f008800780005003700f3ff2700c8
:1025f000830f5000020032006a02b900040041005b
:1026000001047800880078003101fb000203b1006a
:10261000e90f5100f5ff3600909f9f009844780025
:102620008900fb00c094200027fa07000000e000aa
:10263000020032000804e800010037008044eb008b
:10264000a97f9f0080c6b30080cf540006003a00e7
:1026500098cf140010003a0066405000a07f9f0001
:102660000804e8000c003700c0c6b30080cf540057
:1026700009003a0098cf140007003a006740400074
:10268000d84f100002003a006e40500001003700a1
:1026900010c7b300a07f9f001801fb00c3fb2f00f1
:1026a0008f81410001f92f008f80400020f92f0019
:1026b0000f004000150007000000e00009003a008c
:1026c000c1fb2f008f80400020f92f000f00400039
:1026d00089fb07000000e000020035000805e80063
:1026e0005aff37000080eb004f05be004f04be00cc
:1026f0000080fa00000006000302780082017800e2
:1027000001017800811e210040ff3700889fbe0034
:102710008a1f780000047800010078008240780069
:10272000e2c6b30082cf5000c000320015003c006a
:102730006b41510082cf5000240032000a003c005f
:102740007041510082cf5000f900320065414100d4
:1027500082cf50006800320050c2b30080cf5000da
:1027600028013a002401370042c6b30082cf50004e
:102770001b0032006541410082cf500021013a0028
:102780001700370032c7b30082cf5000e800320094
:1027900007003c006441510082cf500056003200d7
:1027a0000241e80082cf500016013a00d200370003
:1027b00052c7b30082cf50004f0032006341410046
:1027c00082cf50000f013a004b0037009080e900a3
:1027d0000108780028089000914078000701370030
:1027e00008699000c4c6b300844f510007003a0046
:1027f0001002780064015200020878001202be0044
:102800004fabde00860378001100370014c7b30019
:10281000844f510003003200a4c6b300844f51001e
:1028200006003a00100278006801520002087800a1
:102830003202be002203be00050037001081e9000d
:102840000208780012027800cfa2de00612bb900e6
:10285000049cbe000694be000868900082c6b300c7
:10286000824f50000d00320022c6b300824f50004c
:1028700004003a000402fb00cfa2de00612bb90085
:102880000800370042c7b300824f500003003200f7
:1028900066414100824f500004003a00cfa2de00a2
:1028a000612bb900049cbe000694be003802be0035
:1028b0002803be0028089000d2c2b300e00f5200e7
:1028c000e08f5a00e00f5b00e08f5b0008003500ee
:1028d000381190000218a30002003200b2c2b30007
:1028e000030037000208a3004c00320002c2b3000c
:1028f000827178004700370008699000c4c6b300b1
:10290000844f510006003a00100278006401520022
:10291000020878001202be006033b80011003700d0
:1029200014c7b300844f510003003200a4c6b300a3
:10293000844f510006003a001002780068015200ee
:10294000020878003202be002203be0005003700f4
:102950001081e90002087800120278008002eb0082
:102960006033b800049cbe000694be000868900066
:1029700082c6b300824f50000d00320022c6b30061
:10298000824f500004003a000482fb008002eb00fa
:102990006033b8000800370042c7b300824f5000d0
:1029a0000300320066414100824f500004003a00ab
:1029b0008002eb006033b800049cbe000694be00a9
:1029c000381090000038a300140032003802be0016
:1029d0002803be00e00f5200e08f5a00e00f5b00ba
:1029e000e08f5b000d00320080c7b30080cf500045
:1029f0000300320080c5b30080cf500007003a00ca
:102a00002808900002c3b300827178000000e8003b
:102a1000817178000000e800200c980028089000e0
:102a200080814100730498003e00370008699000df
:102a3000c3c6b3009080e900834f510022003200ea
:102a40000a003c00e4c15100834f510025003200d0
:102a500083c1e800834f510013003200e8c15100e8
:102a6000834f51001e003a000a00370043c7b300ed
:102a7000834f51001b003200e6c14100834f5100db
:102a800018003200e9c15100834f510014003a0090
:102a900005003700010878001100780028649000d4
:102aa000084878005f0037000108780011007800be
:102ab00018129000cfa2de00612bb9000498be006e
:102ac0000690be005700370001087800110078001a
:102ad00018119000cf91de000288be00510037002f
:102ae0009080e90001087800110078001814900027
:102af000080878004b0037009080e9000108780052
:102b000011027800cfa2de00612bb900049cbe0048
:102b10000694be002808900080814100730498004c
:102b200081c7b3000800780044f907003d00370072
:102b30000869900051c6b300814f51001a003a0055
:102b400010017800e4005100010878001100be0077
:102b5000000c9800110c9800881190000300e00010
:102b600007003d008081eb000001eb00d3fc070073
:102b70000001be0088089000810051000800370065
:102b80000001eb00cdfc0700008170000300320063
:102b90000809900082005000010037008810900062
:102ba000410c98001f0037009080e9000108780070
:102bb000110578007a049800881490000900e0005c
:102bc00004003d000a0078006af7070080047800de
:102bd00007003700090178008000eb000a00780048
:102be000a8f807000000e000010032008a0450004d
:102bf000490c98000b00370028089000817178007c
:102c00000600370028089000808141000104e000a0
:102c100001003a0051c2b300814978000000e80089
:102c2000200c98000000eb004f0578004f04be0018
:042c3000000006009a
:020000040000fa
:102c34000000000000000000000000000000000090
:102c44000000000000000000000000000000000080
:102c54000000000000000000000000000000000070
:102c64000000000000000000000000000000000060
:103254000000000000000000000000000062000008
:103264000200000000000000000000000000000058
:1032740000000000000000000000000001f3000056
:1032840087d80000000000000000000000000000db
:1032940000000000000000000000000004f900002d
:1032a400c3ee000000000000000000000000000069
:1032b40000000000000000000000000004ff000007
:1032c400f0ff00000000000000000000000000000b
:1032d4000000000000000000000000000cf30000eb
:1032e400f1ff0000c000000000000000000000002a
:1032f4000000000000000000000000003cf300009b
:10330400ffff0000e00000000000000000000000db
:103314000000000000000000000000003ef3000078
:10332400ffff0000f00000000000000000000000ab
:1033340000000000000000000000000067f1000031
:10334400fbff0000f8000000000000000000000087
:10335400000000000000000000000000f7f9000079
:10336400ffff0000fc00000000000000000000005f
:10337400000000000000000000010000f7ff000052
:10338400ffff0000fe00000000000000000000003d
:10339400000000000000000000010000efff00003a
:1033a400ffff0000fe00000000000000000000001d
:1033b400000000000000000000070000e7ff00001c
:1033c400ffff0000ff0000000000000000000000fc
:1033d400000000000000000000030000e7ff000000
:1033e400ffff0000ff80000000000000000000005c
:1033f400000000000000000000070000efff0000d4
:10340400ffff0000ffc000000000000000000000fb
:103414000000000000000000000f0000efff0000ab
:10342400ffff0000ffc000000000000000000000db
:10343400000000000000000000070000e7ff00009b
:10344400ffff0000ffe0000000000000000000009b
:103454000000000000000000000f0000e7ff000073
:10346400ffff0000fff0000000000000000000006b
:103474000000000000000000000f0000e7ff000053
:10348400ffff0000fff0000000000000000000004b
:10349400000000000000000000070000efff000033
:1034a400ffff0000fff80000000000000000000023
:1034b400000000000000000000070000ffff000003
:1034c400ffff0000fffc00000000000000000000ff
:1034d400000000000000000000070000ffff0000e3
:1034e400ffff0000fffc00000000000000000000df
:1034f4000000000000000000000f0000ffff0000bb
:10350400ffff0000fffc00000000000000000000be
:103514000000000000000000000f0000ffff00009a
:10352400ffff0000fffe000000000000000000009c
:103534000000000000000000000f0000ffff00007a
:10354400ffff0000ffff000000000000000000007b
:103554000000000000000000001f0000f1ff000058
:10356400ffff0000ffff000000000000000000005b
:103574000000000000000000005f0000f8bf000031
:10358400ffff0000ffff00008000000000000000bb
:103594000000000000000000007f0000c8e30000fd
:1035a400ffff0000ffff000080000000000000009b
:1035b4000000000000000000007f0000c86300005d
:1035c400ffff0000ffff0000c0000000000000003b
:1035d4000000000000000000007f000080410000a7
:1035e400ffff0000ffff0000c0000000000000001b
:1035f400000000000000000000ff000080600000e8
:10360400ffff0000ffff0000e000000000000000da
:10361400000000000000000001ff00000060000046
:10362400ffff0000ffff0000e000000000000000ba
:10363400000000000000000003ff00000000000084
:103644007fff0000ffff0000e0000000000000001a
:10365400000000000000000003fe00000400000061
:103664003fff0000ffff0000f0000000000000002a
:10367400000000000000000007fe00000000000041
:103684001fff0000ffff0000f0000000000000002a
:10369400000000000000000007fe00000010000011
:1036a40007ff0000ffff0000f0000000000300001f
:1036b400000000000000000007fc000000100000f3
:1036c40003ff0000ffff0000f800000000070000f7
:1036d40000000000000000000ff8000000180000c7
:1036e40001ff0000ffff0000f8000000000f0000d1
:1036f40000000000000000000ff8000000000000bf
:1037040000ff0000ffff0000f8000000001f0000a1
:1037140000000000000000000ff80000000000009e
:10372400007f0000ffff0000fc000000003f0000dd
:1037340000000000000000001ff80000000000006e
:10374400007f0000ffff0000fc000000007f00007d
:1037540000000000000000001ff000000000000056
:10376400003f0000ffff0000fc00000000ff00001d
:1037740000000000000000001ff000000000000036
:10378400003f0000ffff0000fc00000001ff0000fc
:1037940000000000000000003ff0000000000000f6
:1037a400000f0000ffff0000be00000007ff000044
:1037b40000000000000000003ff0000000000000d6
:1037c400000f0000ffff0000be0000000fff00001c
:1037d40000000000000000003fe0000000000000c6
:1037e40000030000ffff0000be0000001fff0000f8
:1037f40000000000000000003fe0000000000000a6
:1038040000010000ffff0000be0000003fff0000b9
:1038140000000000000000003fe000000000000085
:1038240000000000ffff0000fe0000007fff00001a
:1038340000000000000000007fe000000000000025
:10384400000000003fff0000de000000ffff00005a
:1038540000000000000000007fe000000000000005
:10386400000000001fff0000df010000ffff000058
:1038740000000000000000007fe0000000000000e5
:10388400000000000fff0000df030000ffff000046
:1038940000000000000000007fe0000000000000c5
:1038a4000000000007ff0000df0f0000ffff000022
:1038b40000000000000000007fe0000000000000a5
:1038c4000000000007ff0000df1f0000ffff0000f2
:1038d40000000000000000007fc0000000000000a5
:1038e4000000000007ff0000df3f0000ffff0000b2
:1038f4000000000000000000ffc000000000000005
:103904000000000003ff0000df7f0000ffff000055
:103914000000000000000000ffc0000000000000e4
:1039240000000000b1ff0000dfff0000ffff000007
:103934000000000000000000ffc0000000000000c4
:1039440000000000e0ff0000dfff0000ffff0000b8
:103954000000000000000000ffc0000000000000a4
:1039640000010000c07f0000dfff0000ffff000037
:103974000000000000000000ffc000000000000084
:1039840000010000807f0000dfff0000ffff000057
:103994000000000000000000ffc000000000000064
:1039a40000000000001f0000dfff0000ffff000018
:1039b4000000000000000000ff8000000000000084
:1039c40000000000000f0000ffff0000ffff0000e8
:1039d4000000000000000000ff8000001e00000046
:1039e4000000000000070000ffff0000ffff0000d0
:1039f4000000000000000000ff8000007f000000c5
:103a04000000000000070000ffff0000ffff0000af
:103a14000000000000000000ff800000ff00000024
:103a24000000000000070000ffff0000ffff00008f
:103a34000000000000000000ff8000003f000000c4
:103a44000000000000070000ffff0000ffff00006f
:103a54000000000000000000ff80000000000000e3
:103a6400000000001f870000ffff0000ffff0000b0
:103a74000000000000000000ff80000000000000c3
:103a84000000000000770000ffff0000ffff0000bf
:103a94000000000000000000ff80000000000000a3
:103aa4000000000000130000ffff0000ffff000003
:103ab4000000000000000000ff8000000000000083
:103ac4000000000000130000ffff0000ffff0000e3
:103ad4000000000000000000ff800000fc00000067
:103ae4000000000000130000ffff0000ffff0000c3
:103af40000000000000000007f8e000000010000b4
:103b04008000000000530000ffff0000ffff0000e2
:103b1400000000000000000047b0000000010000a9
:103b24008000000000330000ffff0000ffff0000e2
:103b3400000000000000000007e000003801000061
:103b4400c0030000f0770000ffff0000ffff00004b
:103b540000000000000000000fe00000e001000091
:103b640080230000d8170000ffff0000ffff0000c3
:103b740000000000000000001fc00000cc01000095
:103b8400000200008c1f0000ffff0000ffff000088
:103b9400c0000000000100003fc10000be020000a0
:103ba40000270000c0030000ffff0000ffff00002b
:103bb400f8000000000100007f810000ff00000009
:103bc40000030000c0030000ffff0000ffff00002f
:103bd400df000000000100007f830000db00000024
:103be40000030000c0030000ffff0000ffff00000f
:103bf40008e0000000010000ffe300009f02000055
:103c04000103000080030000ffff0000ffff00002d
:103c1400000c000000010000ffe20000df3a000099
:103c24000100000000030000ffff0000ffff000090
:103c34000001000080030000ffe200008f6a000022
:103c44000000000000030000ffff0000ffff000071
:103c54000000000020030000ffc000000f4a000025
:103c64000000000000030000ffff0000ffff000051
:103c7400000000000c030000ff800000001400009e
:103c84000000000000030000ffff0000ffff000031
:103c94000000000001830000ff000000004000005d
:103ca4000000000000030000ffff0000ffff000011
:103cb40000000000003b0000ff00000000000000c6
:103cc4000000000000030000ffff0000ffff0000f1
:103cd4000000000000070000ff00000000000000da
:103ce4000000000000030000ffff0000ffff0000d1
:103cf4000000000000070000ff00000000000000ba
:103d04000000000000030000ffff0000ffff0000b0
:103d14000000000000070000ff0000000000000099
:103d24000000000000030000ffff0000ffff000090
:103d34000000000000070000ff80000000000000f9
:103d44000000000000030000ffff0000ffff000070
:103d54000000000000070000ff80000000000000d9
:103d64000000000000030000ffff0000ffff000050
:103d74000000000000070000ff80000000000000b9
:103d84000000000000030000ffff0000ffff000030
:103d94000000000000070000ff8000000000000099
:103da4000000000000030000ffff0000ffff000010
:103db4000000000000070000ff8000000000000079
:103dc4000000000000030000ffff0000ffff0000f0
:103dd4000000000000070000ff8000000000000059
:103de4000000000000030000ffff0000ffff0000d0
:103df4000000000000070000ff8000000000000039
:103e04000000000000070000ffff0000ffff0000ab
:103e14000000000000030000ff800000000000001c
:103e24000000000000070000ffff0000ffff00008b
:103e34000000000000030000ffc0000000000000bc
:103e44000000000000070000ffff0000ffff00006b
:103e54000000000000030000ffc00000000000009c
:103e64000000000000070000ffff0000ffff00004b
:103e74000000000000030000ffc00000000000007c
:103e84000000000000070000ffff0000ffff00002b
:103e94000000000000030000ffc00000000000005c
:103ea4000000000000070000ffff0000ffff00000b
:103eb4000000000000030000ffe00000000000001c
:103ec4000000000000070000ffff0000ffff0000eb
:103ed4000000000000030000ffe0000000000000fc
:103ee4000000000000070000ffff0000ffff0000cb
:103ef4000000000000030000ffe0000000000000dc
:103f04000000000000070000ffff0000ffff0000aa
:103f14000000000000010000ffe0000000000000bd
:103f24000080000000070000ffff0000ffff00000a
:103f34000000000000010000ffe000000006000097
:103f44000180000000070000ffff0000ffff0000e9
:103f54000000000000010000ffe000000007000076
:103f64000300000000070000ffff0000ffff000047
:103f74000000000000010000ffe00000000300005a
:103f84008000000000070000ffff0000ffff0000aa
:103f94000000000000010000ffe00000000f00002e
:103fa40080000000000f0000ffff0000ffff000082
:103fb4000000000000010000fff000000006000007
:103fc400c0000000000f0000ffff0000ffff000022
:103fd4000000000000000000fff0000000000000ee
:103fe40000000000000f0000ffff0000ffff0000c2
:103ff4000000000000000000fff0000000000000ce
:1040040000000000000f0000ffbf0000ffff0000e1
:104014000000000000000000fff0000000000000ad
:1040240000000000000f0000ff3f0000ffff000041
:1040340000000000000000007ff00000000000000d
:1040440000000000000f0000fe3f0000ffff000022
:1040540000000000000000007ff0000000000000ed
:1040640000000000000f0000fc1f0000ffff000024
:1040740000000000000000001ff800000000000025
:1040840000000000000f0000fc1f0000ffff000004
:1040940000000000000000000ff800000000000015
:1040a40000000000000f0000f81f0000ffff0000e8
:1040b400000000000000000007f8000000000000fd
:1040c40000000000000f0000f81f0000ffff0000c8
:1040d400000000000000000003f8000000000000e1
:1040e40000000000000f0000f01f0000ffff0000b0
:1040f400000000000000000003f8000000000000c1
:1041040000000000000f0000f01f0000ffff00008f
:10411400000000000000000001f0000000000000aa
:1041240000000000000f0000901f0000ffff0000cf
:10413400000000000000000001c0000000010000b9
:1041440080000000000f0000801f0000ffff00003f
:10415400000000000000000000000000000f00004c
:10416400fc800000001f0000801f0000ffff000013
:1041740000000000000000000000000000ff00003c
:10418400ffe20000001f0000801f0000ffff00008e
:1041940000000000000000000000000000ff00001c
:1041a400fffe0000001f0000801f0000ffff000052
:1041b400000000000000000000000000007f00007c
:1041c400fffc0000003f0000801f0000ffff000014
:1041d400000000000000000000000000003f00009c
:1041e40000000000003f0000801f0000ffff0000ef
:1041f40000000000000000000000000000010000ba
:10420400c0000000003f0000801f0000ffff00000e
:10421400000000000000000000000000000000009a
:10422400c0000000003f0000801f0000ffff0000ee
:10423400000000000000000000000000000000007a
:1042440000000000003f0000801f0000ffff00008e
:10425400000000000000000000000000000000005a
:1042640000000000007f0000881f0000ffff000026
:10427400000000000000000000000000000000003a
:1042840000000000007f0000880f0000ffff000016
:10429400000000000000000000000000000000001a
:1042a40000000000007f0000c80f0000ffff0000b6
:1042b40000000000000000000000000000000000fa
:1042c4000000000000ff0000c80f0000ffff000016
:1042d40000000000000000000000000000000000da
:1042e4000000000000ff0000c80f0000ffff0000f6
:1042f40000000000000000000000000000000000ba
:104304000000000000ff0000c80f0000ffff0000d5
:104314000000000000000000000000000000000099
:104324000000000000ff0000c80f0000ffff0000b5
:104334000000000000000000000000000000000079
:104344001000000000ff0000c80f0000ffff000085
:104354000000000000000000000000000000000059
:104364000000000000ff0000c80f0000ffff000075
:104374000000000000000000000000000000000039
:104384000000000000ff0000880f0000ffff000095
:104394000000000000000000000000000000000019
:1043a4000000000000ff0000c80f0000ffff000035
:1043b40000000000000000000000000000000000f9
:1043c4000000000000ff0000c80f0000ffff000015
:1043d40000000000000000000000000000000000d9
:1043e4000000000000ff0000c00f0000ffff0000fd
:1043f40000000000000000000000000000000000b9
:104404000000000000ff0000c00f0000ffff0000dc
:104414000000000000000000000000000000000098
:104424000000000000ff0000c00f0000ffff0000bc
:104434000000000000000000000000000100000077
:104444000000000000ff0000e00f0000ffff00007c
:104454000000000000000000000000000100000057
:104464000000000000ff0000c00f0000ffff00007c
:1044740000000000000000000000000001800000b7
:104484000000000000ff0000e00f0000ffff00003c
:104494000000000000000000000000000080000098
:1044a4000000000000ff0000c00f0000ffff00003c
:1044b40000000000000000000000000000c0000038
:1044c4000000000000ff0000e00f0000ffff0000fc
:1044d40000000000000000000000000080600000f8
:1044e4000001000001ff0000e0070000ffff0000e2
:1044f400000000000000000000010000007800003f
:104504000003000081ff0000e0070000ffff00003f
:10451400000000000000000000030000003e000056
:104524008003000000ff0000e4070000ffff00001c
:10453400000000000000000000060000003f000032
:10454400c106000000ff0000e0070000ffff0000bc
:10455400000000000000000000060000401f0000f2
:10456400ea3c000000ff0000e0070000ffff00003d
:104574000000000000000000000c0000400f0000dc
:10458400fff8000000ff0000e4070000ffff000048
:104594000000000000000000000c000040070000c4
:1045a400ffe0000000ff0000f4070000ffff000030
:1045b4000000000000000000001c0000c003000018
:1045c400ff80000000ff0000fc070000ffff000068
:1045d4000000000000000000003d0000c0000000da
:1045e4003e00000000ff0000fe070000ffff000087
:1045f400000000000000000000780000c00000007f
:104604000000000000ff0000ff070000ffff0000a3
:10461400000000000000000000f90000c0000000dd
:104624000000000000ff0000ff870000ffff000003
:10463400000000000000000001f90000c0000000bc
:104644000000000000ff0000ffc70000ffff0000a3
:10465400000000000000000001f90000c00000009c
:104664000000000000ff0000ffe70000ffff000063
:10467400000000000000000003f90000c00000007a
:104684000000000000ff0000fff70000ffff000033
:10469400000000000000000003f30000c000000060
:1046a4000000000001ff0000ffff0000ffff00000a
:1046b400000000000000000007f30000c00000003c
:1046c4000000000001ff0000ffff0000ffff0000ea
:1046d40000000000000000000ff30000e0000000f4
:1046e4000000000001ff0000ffff0000ffff0000ca
:1046f40000000000000000001ff30000e0000000c4
:104704000000000003ff0000ffff0000ffff0000a7
:1047140000000000000000001ff30000e0000000a3
:104724000000000003ff0000ffff0000ffff000087
:1047340000000000000000003ff10000e000000065
:104744000000000003ff0000ffff0000ffff000067
:1047540000000000000000007ff30000e000000003
:104764000000000003ff0000ffff0000ffff000047
:1047740000000000000000007ff30000e0000000e3
:104784000000000007ff0000ffff0000ffff000023
:104794000000000000000000fff10000e000000045
:1047a4000000000007ff0000ffff0000ffff000003
:1047b4000000000000010000fff30000f000000012
:1047c4000000000007ff0000ffff0000ffff0000e3
:1047d4000000000000010000fff30000f0000000f2
:1047e400000000000fff0000ffff0000ffff0000bb
:1047f4000000000000030000fff30000f0000000d0
:10480400000000000fff0000ffff0000ffff00009a
:104814000000000000030000fff30000f0000000af
:10482400000000000fff0000ffff0000ffff00007a
:104834000000000000030000fff30000f00000008f
:10484400000000001fff0000ffff0000ffff00004a
:104854000000000000070000fff30000f800000063
:10486400000000001fff0000ffff0000ffff00002a
:104874000000000000070000fff30000f800000043
:10488400000000001fff0000ffff0000ffff00000a
:1048940000000000000f0000fff30000f80000001b
:1048a400000000003fff0000ffff0000ffff0000ca
:1048b40000000000000f0000fff30000f8000000fb
:1048c400000000007fff0000ffff0000ffff00006a
:1048d40000000000001f0000fff30000f8000000cb
:1048e400000000007fff0000ffff0000ffff00004a
:1048f40000000000001f0000fff10000f8000000ad
:1049040000000000ffff0000ffff0000ffff0000a9
:1049140000000000002f0000fff10000f80000007c
:1049240000000000ffff0000ffff0000ffff000089
:1049340000000000001f0000fff10000fc00000068
:1049440000010000ffff0000ffff0000ffff000068
:1049540000000000001f0000fff10000fc00000048
:1049640000010000ffff0000ffff0000ffff000048
:1049740000000000003f0000fff10000fc00000008
:1049840000010000ffff0000ffff0000ffff000028
:1049940000000000003f0000fff30000fc000000e6
:1049a40000030000ffff0000ffff0000ffff000006
:1049b40000000000007f0000fff100007c00000008
:1049c40000030000ffff0000ffff0000ffff0000e6
:1049d4000000000000ff0000fff300003e000000a4
:1049e40000230000ffff0000ffff0000ffff0000a6
:1049f4000000000000ff0000fff300007e00000044
:104a040000670000ffff0000ffff0000ffff000041
:104a14000000000001ff0000fff100007e00000024
:104a240000670000ffff0000ffff0000ffff000021
:104a34000000000003ff0000fff000007e00000003
:104a440000470000ffff0000ffff0000ffff000021
:104a54000000000007ff0000fff30000fe0000005c
:104a640000070000ffff0000ffff0000ffff000041
:104a74000000000007ff0000fff10000fe0000003e
:104a840000070000ffff0000ffff0000ffff000021
:104a9400000000000fff0000fff10000fe00000016
:104aa40000030000ffff0000ffff0000ffff000005
:104ab400000000003fff0000fff00000fe000000c7
:104ac40000010000ffff0000ffff0000ffff0000e7
:104ad400000000003fff0000fff10000fe000000a6
:104ae40000000000ffff0000ffff0000ffff0000c8
:104af400000000007fff0000fff800001f0000001e
:104b040000000000ffff0000ffff0000ffff0000a7
:104b140000380000ffff0000fffc00001f00000041
:104b240000000000ffff0000ffff0000ffff000087
:104b340000b30000fdff0000fffc00001f000000a8
:104b440000000000ffff0000ffff0000ffff000067
:104b540000030000fcdf0000ffff00004f00000026
:104b640000000000ffff0000ffff0000ffff000047
:104b7400010f0000ff3f0000ffff0000870000005e
:104b840000000000ffff0000ffff0000ffff000027
:104b9400011f0000ff7f0000ffff0000c78000002e
:104ba40000000000ffff0000ffff0000ffff000007
:104bb400023b0000fedf0000ffff0000e380000076
:104bc400000000007fff0000ffff0000ffff000067
:104bd40020ff0000f3bf0000ffff0000f38000008f
:104be400000000007fff0000ffff0000ffff000047
:104bf40068ff0000fdcf0000ffff0000ff80000001
:104c0400000000007fff0000ffff0000ffff000026
:104c140063ff0000fb3f0000ffff0000ff80000077
:104c240000000000ffff0000ffff0000ffff000086
:104c340007ff0000fe6f0000ffff0000ffc0000040
:104c440000010000ffff0000ffff0000ffff000065
:104c54000fff0000f6ff0000bfff0000fff00000a0
:104c640000030000ffff0000ffff0000ffff000043
:104c74003bff0000e13f0000bfff0000fffc00001d
:104c840000070000ffff0000ffff0000ffff00001f
:104c940037ff0000faff0000bfff0000fffe000026
:104ca40000070000ffff0000ffff0000ffff0000ff
:104cb400efff0000f37f0000bfff0000fffe0000d5
:104cc400000f0000ffff0000ffff0000ffff0000d7
:104cd400dfff0000cc3f0000bfff0000ffff00002b
:104ce400000f0000ffff0000ffff0000ffff0000b7
:104cf400bfff0000ecbf0000bfff0000ffff00008b
:104d0400801f0000ffff0000ffff0000ffff000006
:104d1400bfff0000b07f0000bfff0000ffff0000e6
:104d2400801f0000ffff0000ffff0000ffff0000e6
:104d3400ffff0000d6bf00009fff0000ffff000040
:104d4400c03f0000ffff0000ffff0000ffff000066
:104d5400fffe0000cabf00009fff0000ffff00002d
:104d6400c03f0000ffff0000ffff0000ffff000046
:104d7400fffb0000397f00009fff0000ffff0000e1
:104d8400c03f0000ffff0000ffff0000ffff000026
:104d9400ffff0000c83f00009fff0000ffff00006e
:104da400e03f0000ffff0000ffff0000ffff0000e6
:104db400fffd0000a4ff00009fff0000ffff0000b4
:104dc400e03f0000ffff0000ffff0000ffff0000c6
:104dd400fffe0000fe7f00009fff0000ffff0000b9
:104de400f07f0000ffff0000ffff0000ffff000056
:104df400ffff000049ff00008fff0000ffff0000dd
:104e0400f07f0000ffff0000ffff0000ffff000035
:104e1400ffff0000c0ff00008fff0000ffff000045
:104e2400f07f0000ffff0000ffff0000ffff000015
:104e3400fff70000f57f000087ff0000ffff000080
:104e4400f0ff0000ffff0000ffff0000ffff000075
:104e5400fffd0000d8ff000003ff0000ffff00007b
:104e6400f8ff0000ffff0000ffff0000ffff00004d
:104e7400ffff0000d7ff0000037f0000ffff0000da
:104e8400f8ff0000ffff0000ffff0000ffff00002d
:104e9400ffff000090ff000000ff0000ffff000084
:104ea400fcff0000ffff0000ffff0000ffff000009
:104eb400ffff0000787f000000670000ffff000094
:104ec400fcff0000ffff0000ffff0000ffff0000e9
:104ed400ffff0000d4ff000000070000ffff0000f8
:104ee400fcff0000ffff0000ffff0000ffff0000c9
:104ef400ffff000085ff000000070000ffff000027
:104f0400fcff0000ffff0000ffff0000ffff0000a8
:104f1400ffff000059ff000000070000ffff000032
:104f2400fcff0000ffff0000ffff0000ffff000088
:104f3400fffe000045fe000000070000ffff000028
:104f4400feff0000ffff0000ffff0000ffff000066
:104f5400ffff0000d3fc000000070000ffff00007b
:104f6400ffff0000efff0000ffff0000ffff000055
:104f7400ffff0000effc000000070000ffff00003f
:104f8400ffff0000efff0000ffff0000ffff000035
:104f9400ffff0000affc000000070000ffdf00007f
:104fa400feff0000ffef0000ffff0000ffff000016
:104fb400fffe000079fc0000000f0000ffdf00008e
:104fc400ffff0000cfdf0000ffff0000ffff000035
:104fd400ffff0000fffc0000000f0000ffdf0000e7
:104fe400ffff0000cf5f0000ffff0000ffff000095
:104ff400fff90000f9f80000000f0000ffcf0000e7
:10500400ffff0000df0f0000ffff0000ffff0000b4
:10501400fffd0000a3f80000001f0000ffe70000f0
:10502400ffff0000de1f0000ffff0000ffff000085
:10503400ffff0000d7f80000001f0000ffc70000ba
:10504400ffff00009f0f0000ffff0000ffff0000b4
:10505400ffff0000cff80000303f0000ffc7000052
:10506400ffff00009e070000f3ff0000ffff0000a9
:10507400fff50000fff80000201f0000fff3000010
:10508400ffff0000be3f0000f3ff0000ffff000031
:10509400fffb00002ff80000403f0000ffe300008a
:1050a400ffff00003e3f0000e3ff0000ffff0000a1
:1050b400fffb0000d7fe0000003f0000ffeb0000f4
:1050c400ffff00003e7f0000e7ff0000ffff00003d
:1050d400fffb00008ffe0000007f0000fff50000d2
:1050e400ffff00003e3f0000e3ff0000ffff000061
:1050f400ffff00008fff0000e07f0000fffd0000c5
:105104003fff00003c7f0000c9ff0000ffff0000dc
:10511400fff600008fff0000d07f0000fff70000c3
:10512400bffe00007cff0000cdff0000ffff000079
:10513400494e000049540000204400004953000037
:10514400504c000041590000004900004e49000045
:10515400542000005041000052540000204d000033
:105164004f44000045000000504f00005745000028
:10517400522000004f4e0000005300004554000030
:10518400205000004152000054490000414c0000ee
:1051940020520000414d0000204100005245000013
:1051a40041000000555000004441000054450000f7
:1051b40000520000454600005245000053480000dc
:1051c40000570000524900005445000020530000dd
:1051d40043520000454500004e20000042550000a7
:1051e4004646000045520000004300004c450000c4
:1051f4004152000020530000435200004545000086
:105204004e000000575200004954000045200000a1
:10521400494d000041470000450000004649000098
:105224005253000054200000544500005354000021
:1052340000530000454300004f4e0000442000008e
:105244005445000053540000005400004849000035
:105254005244000020540000455300005400000054
:10526400425500004e430000482000004f46000015
:10527400204d000041540000480000004c41000053
:105284005354000020540000455300005400000013
:105294004452000041570000204900004d410000e5
:1052a400474500000000000054720000616e0000d9
:1052b400736d0000697400002074000065730000c1
:1052c400740a000000480000656c00006c6f000068
:1052d400205700006f7200006c6400002120000061
:1052e400256400000a0000000a6f00006b00000043
:1052f4005761000069740000696e000067200000b7
:10530400666f000072200000537400006172000098
:1053140074750000700000004f700000656e00009e
:105324002053000050490000207000006f720000fc
:1053340074000000d4360000163a00003a3700002a
:105344005437000086370000b4370000e43700000b
:10535400f037000016380000fa3700003c33000034
:1053640068330000a833000092330000923200003a
:10537400ee320000e2320000dc3300009e32000016
:105384005e32000023010000000000000000000065
:1053940000000000230100000000000000000000e5
:1053a400000000006461000074610000000000005f
:020000040000fa
:1053b4000200fa00000f7800cd02a9009e007800d8
:1053c400638040000000e00004003200cd22a90008
:1053d4001e00780020409000a50607001e007800fb
:1053e400100078000000e00008003200cd22a80080
:1053f4001e00780010007800800078001e017800fc
:1054040063004100a7060700cd22a900cd02a80031
:105414000080fa00000006000200fa00004f780045
:10542400cd02a900cd22a8001e40780090060700f6
:10543400cd22a900cd02a8000080fa0000000600d9
:105444000000fa00a0892a003eed070011c8bf0041
:105454000004e0000100320040000700208a200020
:10546400d3ff070018c8bf000004a2000004e00036
:1054740002003200a08a2000cdff0700008c20002b
:10548400cbff0700e08c2000c9ff0700608c2000e0
:10549400c7ff07000080fa00000006000000fa00c1
:1054a400e7ff07000b0007000080fa000000060079
:1054b4000000fa00708a2a0022ed0700e0ff0700ce
:1054c400408d2000baff0700020007000080fa00a8
:1054d400000006000000fa00608b2a0019ed0700a6
:1054e40018c8bf000004a2000004e0000800320055
:1054f400408b2000aeff0700000000005116800022
:1055040000802000008060000000e000fbff32000b
:1055140010c0b30018e8b7000080fa0000000600cd
:105524000000fa0018c8bf000004e00008003200c0
:10553400a08b20009eff0700000000005116800091
:1055440000802000008060000000e000fbff3200cb
:105554001868ef000080fa00000006000000fa005e
:10556400cd42a900803e20001b070700cd42a800c1
:1055740000000000511680000080200000806000c0
:105584000000e000fbff32001168ef000080fa0029
:10559400000006000c00fa0020079800310798006c
:1055a4004207980053079800f08b2a00e5ec0700a7
:1055b400ae0090004e009000008040000000e90022
:1055c400670f7000be0090005e00900000804000f5
:1055d4000000e90010079800ae00900080ff2f0043
:1055e40000806000200798002e0090008040780022
:1055f400508f2000014878001e0078008040780019
:10560400608f2000014878003e0090004800de00d2
:1056140080407800708f2000014878003e009000a0
:1056240080407800808f2000014878001e009000a0
:105634004800de0080407800908f20000148780008
:105644001e00900080407800a08f20000148780060
:10565400208f200056ff07000080fa00000006009b
:105664000000fa00408d2a00b6ec0700a08d20004f
:105674004fff07000000000051168000008020004a
:10568400008060000000e000fbff32000080fa00b0
:10569400000006001000fa00400798005107980027
:1056a4006207980073079800b08d2a00a5ec0700e4
:1056b400ce00900080ff2f0000806000400798001b
:1056c4004e00900067006000ee00900000805000e3
:1056d40060079800ce009000010f7800de00900073
:1056e40011079800ce0090006e009000808040006a
:1056f400f0072000808f50000400360001082000cd
:105704004e00900000805000010037006e009000b1
:1057140020079800de0090007e009000808040000a
:1057240070122000808f5000040036008112200087
:105734005e00900000805000010037007e00900061
:10574400300798004e0090001e005000ae009000fc
:105754000080400020079800de0090001e009000aa
:1057640000805000be009000008040003007980088
:105774000fc8bf000004e00002003200e08f2000e8
:105784000bff0700be0190002e0190009e009000c8
:105794001e0078007fff0700b1ff07000fc8bf009d
:1057a4000004e000020032004090200000ff0700e7
:1057b4000080fa00000006000600fa004047980046
:1057c400308e2a005fec070039ff0700e08f2000cd
:1057d400f7fe070083122000020820008000eb007f
:1057e4000000eb006bff0700008e2000f0fe0700b6
:1057f4006000b800008fbe006000b800008fbe00db
:105804000600370000c0eb0003ff07001200200071
:10581400030020001e0f41005e974900f02721007d
:10582400010020001e01be00800f5100818f59002d
:10583400f4ff3600608e2000ddfe07006000b80033
:10584400008fbe00060037004e409000f2fe0700b5
:1058540012002000030020001e0f41005e97490043
:10586400f0272100010020001e01be00800f51001e
:10587400818f5900f4ff360040902000ccfe0700d1
:105884001068ef000080fa00000006000600fa002d
:1058940040479800708f2a002aec070004ff070095
:1058a400e08f2000c2fe07008312200002082000bf
:1058b4008000eb000000eb0036ff0700008e2000a4
:1058c400bbfe07006000b800008fbe006000b80097
:1058d400008fbe000600370000c0eb00cefe0700bc
:1058e40012002000030020001e0f41005e974900b3
:1058f400f0272100010020001e01be00800f51008e
:10590400818f5900f4ff3600608e2000a8fe070046
:105914006000b800008fbe00060037004e409000c3
:10592400bdfe070012002000030020001e0f4100ee
:105934005e974900f0272100010020001e01be00ef
:10594400800f5100818f5900f4ff360044ff070097
:105954004090200096fe07001068ef000080fa00d7
:10596400000006002400fa00400f9800510f980030
:10597400620f9800730f9800041798002567980029
:105984003667980040902a00eeeb070010c8bf006d
:105994000004e000020032000040eb0086ff070034
:1059a4007e089000670040004300de003007980046
:1059b400de08900080ff2f0000806000500f9800e8
:1059c4003e0090004300dd00700f9800de08900058
:1059d40041079800ee08900051079800de089000f7
:1059e4007e08900080804000f0072000808f5000e7
:1059f40004003600010820005e089000008050007a
:105a0400010037007e08900060079800ee089000bf
:105a14000e1090008080400070122000808f500093
:105a240004003600811220006e08900000805000af
:105a3400010037000e10900070079800ce0090000f
:105a44005e08900000805000000f9800de00900077
:105a54006e08900000805000100f9800ee00900037
:105a64000e0890000080500060079800fe0090002f
:105a74001e08900000805000700798006e0090008f
:105a84000000e0008d0032007e0090000000e00085
:105a94008c003200e08f200045fe0700fe019000dc
:105aa4006e019000de0090004e009000b9fe0700e9
:105ab400008e20003efe07000000eb00000f78007f
:105ac4000000eb00100798000000eb00000f7800c6
:105ad400350037000000eb00100798002c00370059
:105ae4003e6090000004e0000e0032000e089000ba
:105af400c300de001e009000008140001e089000dc
:105b04001e0040008e109000008050008000e900cc
:105b14003e0090000088b9000000780000004100b9
:105b24000a0037000e089000c300de001e0090003b
:105b3400008140001e0890009e0040003e0090003e
:105b44000088b9000000780000004100200f980090
:105b54002e089000ce08900000804000904078000d
:105b6400414798002e6090000004e00003003200da
:105b74004e4090000080ea00404798004e4090005c
:105b840025fe07001e0090000000e80010079800a2
:105b94006e009000c300de001e009000808f500055
:105ba400cfff3e001e0fe8007e0090009e007800ac
:105bb400808f5000c7ff3900608e2000fcfd070075
:105bc4000000eb00000f7800350037000000eb0008
:105bd400100798002c0037003e6090000004e0009d
:105be4000e0032000e089000c300de001e0090007c
:105bf400008140001e0890001e0040008e1090009e
:105c0400008050008000e9003e0090000088b90048
:105c140000007800000041000a0037000e089000e0
:105c2400c300de001e009000008140001e089000aa
:105c34009e0040003e0090000088b90000007800fb
:105c440000004100300f98003e089000ce089000fc
